:020000040800F2
:10000000806400205D0200089B210008FD1D00089F
:10001000992100088D030008F52800080000000061
:100020000000000000000000000000009D0100082A
:100030007904000800000000F90100088923000885
:1000400077020008770200087702000877020008AC
:10005000770200087702000877020008770200089C
:10006000770200087702000877020008770200088C
:10007000F103000877020008770200087702000801
:10008000770200087702000877020008770200086C
:100090009103000877020008770200087702000841
:1000A000770200087702000877020008770200084C
:1000B000552400087702000877020008770200083C
:1000C000770200087702000877020008770200082C
:1000D000770200087702000877020008412800082C
:1000E000770200087702000877020008770200080C
:1000F00077020008770200087702000877020008FC
:1001000077020008770200087702000877020008EB
:1001100077020008770200087702000877020008DB
:1001200077020008770200087702000877020008CB
:1001300077020008770200087702000877020008BB
:100140009D03000877020008770200087702000884
:10015000770200087702000877020008770200089B
:10016000770200087702000877020008770200088B
:1001700077020008770200087702000800000000FC
:100180007702000877020008DFF80CD000F0ECF8E6
:1001900000480047F1300008806400202C4B1968AB
:1001A0000868B0E8F04F80F30988BFF36F8F4FF015
:1001B000000080F3118870470000000008480068C4
:1001C000006880F308884FF0000080F3148862B65E
:1001D00061B6BFF34F8FBFF36F8F00DF00BF00BF6B
:1001E00008ED00E0DFF80C00016841F470010160E7
:1001F000704700BF88ED00E0EFF30980BFF36F8F19
:10020000134B1A681EF0100F08BF20ED108A20E96A
:10021000F04F106009B44FF0500080F31188BFF325
:100220004F8FBFF36F8F03F06DFB4FF0000080F333
:10023000118809BC19680868B0E8F04F1EF0100F6B
:1002400008BFB0EC108A80F30988BFF36F8F704746
:1002500030000020EFF3058070470000064880471B
:1002600006480047FEE7FEE7FEE7FEE7FEE7FEE79B
:10027000FEE7FEE7FEE7FEE73924000889010008F3
:100280002DE9F05F0546002092469B4688460646CB
:10029000814640241BE0284641464746224600F05E
:1002A00053F853465A46C01A914110D31146184686
:1002B000224600F03AF82D1A67EB01084F46224615
:1002C0000120002100F031F817EB00094E41201EFB
:1002D000A4F10104DFDC484631462A464346BDE826
:1002E000F09F40EA01039B0703D009E008C9121FF1
:1002F00008C0042AFAD203E011F8013B00F8013BE0
:10030000521EF9D27047D2B201E000F8012B491E0B
:10031000FBD270470022F6E710B513460A460446A2
:100320001946FFF7F0FF204610BD202A04DB203AD3
:1003300000FA02F1002070479140C2F1200320FA38
:1003400003F3194390407047202A04DB203A21FA36
:1003500002F00021704721FA02F3D040C2F12002DE
:100360009140084319467047064C074D06E0E06887
:1003700040F0010394E8070098471034AC42F6D3EC
:10038000FFF706FF203D0008403D0008FEE70000A3
:10039000014800F0E4B9000090000020014800F09E
:1003A000DEB90000B800002038B50E4C4FF40075DF
:1003B00025600025A560E560082525610A4C050A31
:1003C00025706070080AA070E170100A20716271D7
:1003D000180AA071E3716B4622460249034800F0F7
:1003E0005FF838BDF40400202500002090000020B4
:1003F000014800F025BC0000F40300200168182328
:10040000CAB2103AB2FBF3F2054B6FF30901032AAB
:100410009B5CC36500D9091D8165084670470000D3
:10042000C83C000810B5014600208B698A6A4FF06D
:10043000C07453B1B3F5005F15D072B1012A0CD06E
:10044000022A0AD0032A09D104E01AB1012A06D0EF
:10045000022A03D1C96AC90100D5012010BDC96AA9
:10046000A142FAD010BD002AF7D0012AF2D0022A08
:10047000F3D0032AF3D010BD7047704790F82020C6
:10048000012A07D0022A05D0416A41F48021416245
:1004900001207047006842690A43426100207047AA
:1004A000F0B590F820500468A468012D05D0022D05
:1004B00003D0416A41F4802153E014F0406F01D130
:1004C000E5004BD5C4F30164022C03D9416A41F421
:1004D000000146E00125A5401D608D684FF4C07302
:1004E0009DB1CE6835434E6845EAC605066803EB04
:1004F0000417F5514FF4C275076805EB04150E6932
:100500007E51097D012905D009E00E88CD6845EAB4
:100510004655EBE701684E5946F480764E51117905
:10052000D2F805504FF4C67641EA0525016806EB7E
:1005300004168D511178D2F801204FF4C47541EAA8
:100540000221026805EB04155151006803EB041108
:10055000425842F0010242500020F0BD416A41F48D
:10056000001141620120F0BD10B590F82020012A51
:1005700007D0022A05D0416A41F48021416201205E
:1005800010BD3B48D0F8002242F00102C0F8002222
:10059000D0F8002222F47C52C0F80022D0F80022C9
:1005A0004B6A42EA0322C0F800220A7D02F01F03D0
:1005B00001229A40D0F81C329343C0F81C32CB6918
:1005C000B3B9D0F80C329343C0F80C328C894B6825
:1005D00064F31F434C6900EBC404C4F840320C8937
:1005E0000B6864F31F434C6900EBC404C4F8443245
:1005F000CB69012B16D1D0F80C321343C0F80C3262
:100600000C884B6864F31F434C6900EBC404C4F8C6
:1006100040320C89CB6864F31F434C6900EBC4047F
:10062000C4F844328B69002BD0F804320ED0134347
:10063000C0F804320B69002BD0F8143208D01343F1
:10064000C0F81432096A012904D008E09343EFE7A7
:100650009343F5E7D0F81C121143C0F81C12D0F8F0
:10066000001221F00101C0F80012002010BD0000AE
:1006700000640040704730B590F82040012C05D050
:10068000022C03D0416A41F480215DE00468002916
:1006900055D02469A40754D04FF4D874056804EBEE
:1006A00001142D5915F00405956005682D594ED09B
:1006B000ED08556005682C5904F00204D4604FF42D
:1006C000DA74056804EB01142D5905F00F05156166
:1006D00005682D59C5F30725956105682C59240C2B
:1006E00054614FF4DC72046802EB0112A4581C70D0
:1006F0000468A458240A5C700468A458240C9C70F4
:100700000468A258120EDA704FF4DE72046802EB2D
:100710000112A4581C710468A458240A5C7104686E
:10072000A458240C9C710468A258120EDA71006857
:1007300081B1016941F020010161002030BDE46810
:10074000A8E7416A41F400114162012030BD6D0DFE
:100750001560AFE7C16841F02001C160EDE72DE908
:10076000F05F0546006800244669D0F80490876869
:10077000D0F80CB0D0F810A0D0F81880F10748D00D
:10078000F90714D001218160B80703D5284600F08D
:1007900050FA0CE0780702D54FF4006407E0380700
:1007A00002D54FF4805402E0284600F041FAF805E3
:1007B00016D529684FF480708860B80503D528469F
:1007C00000F039FA0CE0780502D544F4005407E053
:1007D000380502D544F4804402E0284600F02AFAA5
:1007E000F80316D529684FF480308860B80303D524
:1007F000284600F022FA0CE0780302D544F40044C5
:1008000007E0380302D544F4803402E0284600F0C3
:1008100013FA300707D55FEACB6004D529681020AA
:1008200044F40074C86070074FF0080707D55FEA0A
:100830000B7004D52868C760284600F099F9B00706
:1008400006D52868C068800702D0284600F092F9D3
:10085000700607D55FEACA6004D52968102044F401
:1008600080640861B00607D55FEA0A7004D528687D
:100870000761284600F0ACF9F00606D52868006943
:10088000800702D0284600F0A4F9B00308D55FEA3B
:10089000C96005D5296810204860284600F09AF9FB
:1008A000F00307D55FEA097004D528684760284639
:1008B00000F0C4F9300446D55FEA497040D5F00530
:1008C00004D55FEAC87001D044F00104B00504D536
:1008D0005FEA887001D544F00204700504D55FEA30
:1008E000487001D544F00404300529D518F0700F84
:1008F00026D008F07000402815D006DC102809D05A
:1009000020280AD0302816D10AE050280ED06028BE
:1009100011D10EE044F008040DE044F010040AE0A8
:1009200044F0200407E044F0400404E044F0800474
:1009300001E044F480742868816921F070018161CC
:10094000296804204860002C05D0686A204368624A
:100950002846FFF78FFEBDE8F09F70B5040003D076
:1009600094F8200010B104E0012070BD204600F092
:1009700081F82068016821F00201016000F076FB37
:100980000546052604E000F071FB401B0A2811D83B
:10099000206840688007F6D42068016841F00101B2
:1009A000016000F063FB05460BE000F05FFB401BBD
:1009B0000A2806D9606A40F40030606284F820603A
:1009C000D2E720684068C007EFD0207E0128206869
:1009D00001683DD021F080010160607E012820681F
:1009E000016838D021F040010160A07E0128206814
:1009F000016833D021F020010160E07E01282068E9
:100A000001682ED041F010010160207F012820688C
:100A1000016829D021F008010160607F0128206869
:100A2000016824D021F004010160D4E902010843E7
:100A3000D4E90412114308436168491E0843216840
:100A4000C86100206062012084F82000002070BD91
:100A500041F08001C0E741F04001C5E741F02001CD
:100A6000CAE721F01001CFE741F00801D4E741F0D7
:100A70000401D9E7F0B587B0044614216846FFF7B2
:100A800049FC364B3648DFF8D0E01968D4F800C08E
:100A9000334A03250226092710300024491CF44557
:100AA00022D11960012907D1016841F0007101606C
:100AB000006800F000700590106840F008001060B9
:100AC0001068CDE9005600F00800CDE904706946D1
:100AD0002448CDE9024500F0EDF90022052114205B
:100AE00000F050FB142032E0DFF87CE0F44530D118
:100AF000D0F800C04CF0806CC0F800C0D0F800C046
:100B000001290CF0806CCDF814C0196007D1016880
:100B100041F000710160006800F0007005901068FD
:100B200040F002001060106802AB00F00200059077
:100B30006020CDE9000683E8B00069460B4800F06C
:100B4000B9F900220521402000F01CFB402000F0F4
:100B50000BFB07B0F0BD0000006400400000002067
:100B600030380240000C024000680040000402409F
:100B70007047000000B58BB001AB03AA0021FFF75E
:100B80007AFD0398A0F2012006281AD80E49C0B2B7
:100B900000EB800208700D4901EB420031F8123081
:100BA0000381BDF804305BBA21F81230BDF806109D
:100BB00049BA4180BDF8081049BA81809DF80A10F1
:100BC00081710BB000BD00001C00002094040020C7
:100BD000704770477047000070B5044690F82000D9
:100BE000012804D0606A40F40020606218E002200E
:100BF00084F820002068016821F00101016000F004
:100C000035FA05460EE000BF00F030FA401B0A2816
:100C100008D9606A40F400306062052084F8200042
:100C2000012070BD20684068C007EDD1606270BDD2
:100C300070477047704770477047704770470000B3
:100C40002DE9F84304464FF00009CDF800906348C1
:100C50004FF41651A56D0068B0FBF1F72E6894F8BB
:100C60005C10082000FA01F131420FD021680A68B7
:100C700052070BD50A6822F004020A6094F85C104F
:100C80008840A860606D40F00100606594F85C10D9
:100C90004FF0010808FA01F0304208D02168496994
:100CA000090604D5A860606D40F00200606594F804
:100CB0005C1004208840304208D021680968890708
:100CC00004D5A860606D40F00400606594F85C1085
:100CD00010208840304218D021680968090714D5CF
:100CE000A86020680168490304D50068000308D59E
:100CF000A16C07E00168C90503D4016821F008016F
:100D00000160216C09B12046884794F85C102020CE
:100D10008840304231D021680968C9062DD5A860C5
:100D200094F8350005282068016806D0490347D5A6
:100D3000006800031DD4616C1CE021F01601016005
:100D40002068416921F080014161206C08B9A06CE4
:100D500020B12068016821F00801016094F85C105E
:100D60003F208840A86084F8349084F83580216D55
:100D70001FE0E16B09B120468847606D00282BD049
:100D8000606DC00714D0052084F835002068016824
:100D900021F0010101600098401C0090B84203D886
:100DA00020680068C007F6D184F8349084F8358054
:100DB000E16C002910D001B02046BDE8F04308479F
:100DC0000168C905D5D4016821F01001016084F8DB
:100DD000349084F83580CCE7BDE8F8831800002013
:100DE0002DE9F041044600F041F906465CB10025CA
:100DF00084F83450022084F835002068016821F01E
:100E0000010101600DE00120BDE8F08100F02EF944
:100E1000801B052805D920206065032084F8350053
:100E2000F2E720680068C007F0D122681168204806
:100E30000140D4E901031843D4E90336334318438E
:100E400063691843A3691843E3691843236A184385
:100E50000843616A042903D1D4E90B1319430843F9
:100E6000106020684069666A20F0070130460E4332
:100E7000012704280CD1A06A0643E06A40B120464D
:100E8000FFF7D0FA20B14020606584F83570BAE7EA
:100E9000206846612046FFF7B1FA94F85C203F21B4
:100EA00091408160656584F835700020ACE70000F2
:100EB0003F8010F02DE9F84F00224FF00108032584
:100EC0004FF00F0E0B6808FA02F42340A3426ED1D4
:100ED0004E68012E05D0022E03D0112E01D0122E05
:100EE00012D186684FEA420C05FA0CF7BE43CF6870
:100EF00007FA0CF7374387604668A6430C79C4F3BA
:100F00000014944034434460C668570005FA07FC57
:100F10008C6826EA0C06BC403443C4604C68022C42
:100F200001D0122C13D1D40800EB8404A346D4F8CA
:100F3000209054074FEAD46A0EFA0AF629EA060905
:100F40000E6906FA0AF646EA0906CBF8206006683A
:100F50000C7926EA0C0604F00304BC403443046018
:100F60004C68E40065D5364C266846F48046266019
:100F7000246822F0030604F480440094314C344485
:100F8000A446D4F808489607370F0EFA07F6B4437C
:100F90002D4EB04201D1002624E02C4EB04201D1AA
:100FA00001261FE02A4EB04202D102261AE040E09C
:100FB000284EB04201D1032614E0274EB04201D1A1
:100FC00004260FE0254EB04201D105260AE0244E4A
:100FD000B04201D1062605E0224EB04201D10726DB
:100FE00000E00826BE402643CCF808681E4E346850
:100FF0004F689C43FF0300D51C4334601A4C241DEA
:1010000026684F689E43BF0300D51E432660164ED8
:10101000083634684F689C43FF0200D51C43346097
:10102000114E0C3634684F689C43BF0200D51C43F8
:101030003460521C102AFFF445AFBDE8F88F000061
:1010400044380240003001400000024000040240E9
:1010500000080240000C0240001002400014024050
:1010600000180240001C0240003C0140014880681A
:10107000704700000C00002002488168027811448B
:10108000816070470C0000200B4810B5016841F4E6
:1010900000710160016841F480610160016841F400
:1010A00080710160032000F08DF8002000F006F848
:1010B00000F03EF8002010BD003C024010B5014693
:1010C00088B000221C2000F05DF81C2000F04CF8D5
:1010D00014480024016841F001010160006805A97D
:1010E00000F001000690684600F018F900F036F9AB
:1010F0000D494000B0FBF1F10C484FF08042491E11
:10110000026040F2E732C0E90324C0E9011400F0B4
:1011100099FB10B1012008B010BD044800F0CEFBCF
:10112000F9E700004038024040420F00540400201C
:101130000C4882B0016841F480410160006800F40D
:10114000804000900748001F016841F08051016015
:101150000068002200F0805000900F21901E02B025
:1011600000F010B844380240002809DB00F01F02EC
:10117000012191404009800000F1E020C0F80011F9
:1011800070470000F0B40E4B1B680C46C3F30223FB
:10119000C3F10705042D00D90425191D072901D223
:1011A000002300E0DB1E012606FA05F1491E21405E
:1011B00099409E40761E16403143F0BC01F09BBB27
:1011C0000CED00E0064900F0070208684FF6FF0347
:1011D000184040EA0220034A1043086070470000AC
:1011E0000CED00E00000FA052DE9F0470E46050081
:1011F00065D0DFF81481D8F80000F7B200F00F00D6
:10120000B04207D288F80070D8F8000000F00F0054
:10121000B04254D128683D4C810712D5400703D510
:10122000206840F4E05020602878000703D520684B
:1012300040F4604020602068A96820F0F000084376
:1012400020602878C0072DD0304968680839012807
:1012500012D0022813D0032811D009688907002969
:101260002DDA216821F0030101432160FFF7FEFE22
:10127000814641F2883A0EE009688903EFE7096880
:101280008901ECE7FFF7F2FEA0EB0901514502D915
:101290000320BDE8F0872068696800F00C00B0EB1F
:1012A000810FEFD1D8F80010404601F00F01B14294
:1012B00007D90770006800F00F00B04201D001208C
:1012C000E7E72878400705D52068E96820F4E05072
:1012D000084320602878000706D52068296920F493
:1012E000604040EAC100206000F058F82168084AD8
:1012F000C1F30311515CC840064908600648006804
:10130000FFF7DCFE0020C4E7003C02400838024042
:10131000D03C000818000020100000200F220260BE
:101320000C4A136803F003034360136803F0F003EF
:101330008360136803F4E053C36012684FF4E05312
:1013400003EAD20202610448006800F00F0008605E
:101350007047000008380240003C0240044805493C
:1013600000680968044AC1F38221515CC840704793
:101370001800002008380240E03C000804480549F5
:1013800000680968044AC1F34231515CC8407047A3
:101390001800002008380240E03C0008154810B54D
:1013A000006810F00C02144813D01449042A0FD01E
:1013B000082A0ED10F4C241F2268236802F03F0236
:1013C0005B0207D52068C0F38810A0FB010106E08E
:1013D000084610BD2168C1F38811A1FB000100235C
:1013E000FEF74EFF2168C1F30141491C4900B0FBE3
:1013F000F1F010BD083802400024F400001BB700D3
:101400002DE9F84F04006ED02078DFF83C93C00738
:10141000A9F104054AD009F104000168C1F3810172
:10142000012908D00068C0F3810002280AD1D9F848
:101430000000400206D52868800337D56068002880
:10144000E1D033E06068B0F5803F10D0B0F5A02F58
:10145000286810D020F480302860286820F480208C
:1014600028606068A8B1FFF701FE06460DE0286815
:1014700040F48030F4E740F480202860F7E700BFB4
:10148000FFF7F4FD801B642873D828688003F7D524
:101490000CE0FFF7EBFD064605E000BFFFF7E6FDB9
:1014A000801B6428F0D828688003F7D42078DFF800
:1014B0009C8280074FF0000A3ED5A348001D0168BA
:1014C00011F00C0F08D00068C0F3810002280BD186
:1014D000D9F80000400207D42868800716D5E068D4
:1014E000012800D112E02BE1E068B8B10120C8F872
:1014F0000000FFF7BBFD064605E000BFFFF7B6FDA5
:10150000801B0228C0D828688007F7D52868216981
:1015100020F0F80040EAC10028600DE0C8F800A003
:10152000FFF7A4FD064604E0FFF7A0FD801B02289C
:101530001FD828688007F7D42078000722D5824E6C
:1015400083486169703671B101210160FFF78EFD3A
:10155000074604E0FFF78AFDC01B022809D830685F
:101560008007F7D50EE0C0F800A0FFF77FFD074623
:1015700005E082E0FFF77AFDC01B02287DD83068C5
:101580008007F7D42078400768D5DFF8BCB1002782
:101590000BF13C0BDBF80000C0000BD4DBF80010B3
:1015A00041F08051CBF80010DBF80000012700F07B
:1015B00080500090674E3068C00510D4306840F409
:1015C00080703060FFF752FD009005E0FFF74EFDA0
:1015D0000099401A022850D83068C005F6D55A4EF6
:1015E000A0686C3601280FD00528306810D020F094
:1015F00001003060306820F004003060A068B8B1AD
:10160000FFF734FD00900FE0306840F00100F4E790
:1016100040F004003060F7E7FFF728FD0099411A19
:1016200041F28830814266D830688007F4D50EE0F8
:10163000FFF71CFD009007E0FFF718FD0099411A25
:1016400041F28830814256D830688007F4D42FB1F7
:10165000DBF8001021F08051CBF80010A069C8B36E
:101660003949091D0968C1F3810102294AD00228BC
:10167000504607D0C8F8600000E03CE0FFF7F6FCF9
:1016800004463BE04746C8F86000FFF7EFFC06461B
:1016900005E000BFFFF7EAFC801B02282BD8286872
:1016A0008001F7D4D4E907010843A16A2A4A49080E
:1016B00002EB0141626A41EA8211084394F82C105E
:1016C00040EA0161C9F8001001203866FFF7CEFC3E
:1016D000044606E036E000BFFFF7C8FC001B022806
:1016E00009D828688001F7D52CE000BFFFF7BEFCC1
:1016F000001B022802D90320BDE8F88F286880016A
:10170000F4D41FE00128F7D0D9F80000E26900F412
:101710008001914214D1226A00F03F0191420FD121
:1017200047F6C071626A0140914209D1A26A00F491
:101730004031914204D1E16A00F07060884201D0EA
:101740000120D9E70020D7E70438024000004742D3
:10175000800E4742007000400000FFFF7047704756
:1017600010B590F83C20012A22D0012280F83C20BC
:10177000CA688C6822F4407222434C6822F480626A
:1017800022430C6822F4006222430C6922F4805246
:1017900022434C6922F400522243C969002322F4F7
:1017A00080420A4301684A6480F83C30002010BD42
:1017B000022010BD70B590F83C20012A32D00124DF
:1017C00080F83C40022280F83D2003685A689D68FA
:1017D00022F070060A6832435A60134B02689A423C
:1017E00014D0B2F1804F11D0104B9A420ED0104B52
:1017F0009A420BD00F4B9A4208D00F4B9A4205D019
:101800000E4B9A4202D00E4B9A4204D1496825F001
:1018100080031943916080F83D40002180F83C101E
:10182000084670BD022070BD000001400004004069
:1018300000080040000C004000040140004001404E
:101840000018004010B5040003D094F83D0010B11A
:1018500007E0012010BD002084F83C00204600F085
:101860000DF8022084F83D00211D206800F0F8FDED
:10187000012084F83D00002010BD000008B50C4A8E
:1018800001680C48914207D1016841F001010160F3
:10189000006800F0010009E0074A914207D10168A1
:1018A00041F002010160006800F00200009008BDF4
:1018B0000000014044380240000401400168CA6849
:1018C00042F00102CA600068816801F00701062940
:1018D00003D0016841F0010101600020704770B53C
:1018E000044690F83C00012817D0012584F83C50AC
:1018F000022084F83D002068826822F0770222F4FA
:101900007F4282600868502830D00DDC20284DD0FE
:1019100005DC98B310283BD148E0022070BD302888
:1019200044D0402834D139E0602828D0702806D02F
:10193000B0F5805F2CD0B0F5005F29D10AE0CB680C
:10194000D1E90121206800F0EFFD2068816841F0B5
:10195000770109E0CB68D1E90121206800F0E4FDBE
:101960002068816841F48041816011E0CA6849685B
:10197000206800F0ADFE5021206807E016E0CA683C
:101980004968206800F0B5FE6021206800F0D6FDAF
:1019900084F83D50002084F83C0070BDCA68496856
:1019A000206800F095FE40212068EFE7226801469C
:1019B0001046EBE7704770B50446006801694FF0C8
:1019C0000005C943890715D4C168C943890711D4E3
:1019D000E91E016101202077206880698007204688
:1019E00002D0FFF7E7FF04E000F0ECF8204600F03B
:1019F0006EF9257720680169C943490717D4C16882
:101A0000C943490713D46FF0040101610220207714
:101A10002068806910F4407F204602D0FFF7CAFF9B
:101A200004E000F0CFF8204600F051F92577206857
:101A30000169C943090716D4C168C943090712D40B
:101A40006FF008010161042020772068C0698007D9
:101A5000204602D0FFF7AEFF04E000F0B3F82046C6
:101A600000F035F9257720680169C943C90617D404
:101A7000C168C943C90613D46FF010010161082081
:101A800020772068C06910F4407F204602D0FFF71D
:101A900091FF04E000F096F8204600F018F9257751
:101AA00020680169C943C90708D1C168C943C9078A
:101AB00004D1891E0161204600F00AF920680169FD
:101AC000C943090609D4C168C943090605D46FF0A2
:101AD000800101612046FFF741FE20680169C9438A
:101AE000490609D4C168C943490605D46FF04001CD
:101AF0000161204600F0F3F820680169C9438906B6
:101B00000BD4C168C943890607D46FF02001016175
:101B10002046BDE87040FFF722BE70BD70B586B0AC
:101B2000044614216846FEF7F5FB204A2168204848
:101B300002240125914210D1016841F01001016099
:101B40000068694600F0100005904FF4D4408DE81D
:101B500031001848CDE9034523E0174A914222D1CC
:101B6000016841F480710160016801F480710591A0
:101B7000016841F0040101600068032600F00400E0
:101B80000590C0208DE83100CDE9034669460B4839
:101B9000FFF790F940208DE83100CDE90346694612
:101BA0000748FFF787F906B070BD0000000001404C
:101BB0003038024000100240000401400020024082
:101BC00000080240704770B5044690F83C000D468E
:101BD00001280DD0012684F83C60022084F83D00E5
:101BE00042B1042A18D0082A2AD00C2A4DD139E053
:101BF000022070BD206800F0A9FC2068816941F0D6
:101C0000080181612068816921F0040181612068F7
:101C100081692A69114311E0206800F0C7FC20683F
:101C2000816941F4006181612068816921F48061EA
:101C30008161206881692A6941EA0221816124E089
:101C4000206800F0E9FC2068C16941F00801C16129
:101C50002068C16921F00401C1612068C1692A6955
:101C6000114311E0206800F00BFD2068C16941F4C8
:101C70000061C1612068C16921F48061C16120688F
:101C8000C1692A6941EA0221C16184F83D600020EE
:101C900084F83C0070BD10B5040003D094F83D00FA
:101CA00010B107E0012010BD002084F83C00204660
:101CB00000F00CF8022084F83D00211D206800F09F
:101CC000CFFB012084F83D00002010BD7047704715
:101CD0000068B0F1804F01D1FFF7CEB9704770476F
:101CE00070B5040004D094F83900002510B106E066
:101CF000012070BD84F83850204600F023F82420DD
:101D000084F839002068C16821F40051C160204680
:101D100000F002FD2068016921F490410161206812
:101D2000416921F02A0141612068C16841F40051F4
:101D3000C160E563202084F8390084F83A0000206F
:101D400070BD000070B586B0064614216846FEF7E7
:101D5000E1FA25493068884243D1244800250168CA
:101D600041F480210160006800F4802005901F4844
:101D70001038016841F0040101600068694600F014
:101D8000040005904FF4406000900220CDE9010569
:101D900003200390072004901548FFF78BF8164C9A
:101DA000144820604FF00060C4E901054014C4E904
:101DB000035080106561C4E906504FF44030C4E917
:101DC00008052046FFF70CF808B1FEF756FB7463D0
:101DD000002205212720A663FFF7D4F92720FFF76B
:101DE000C3F906B070BD0000004800404038024012
:101DF0000008024028600240F4030020FEE70000D3
:101E00000F4810B50D4901600321416000214FF4D6
:101E100010228160C0E903124FF400124261017682
:101E200041768176C17601774177FEF796FD0028ED
:101E300003D0BDE81040FEF720BB10BD0064004099
:101E4000900000200F4810B50D490160032141604A
:101E500000214FF410228160C0E903124FF40012F8
:101E60004261017641768176C17601774177FEF74E
:101E700074FD002803D0BDE81040FEF7FEBA10BD87
:101E800000680040B8000020094808B5016841F426
:101E9000001101600068002200F40010009005218C
:101EA0000C20FFF76FF9BDE808400C20FFF75CB984
:101EB0003038024010B58EB01C220B496846FEF740
:101EC00010FA0021684601F040F9084C06491C222E
:101ED00060601C3107A8FEF704FA002107A801F092
:101EE00034F920600EB010BD903C000804000020C2
:101EF0001D4808B5016841F002010160016801F068
:101F000002010091016841F001010160016801F0E6
:101F100001010091016841F008010160016801F0D0
:101F200008010091016841F004010160016801F0BD
:101F300004010091016841F480710160016801F4BD
:101F400080710091016841F080010160016801F039
:101F500080010091016841F010010160006800F00B
:101F60001000009008BD00003038024010B596B057
:101F700000240F9410941194129413941C21684619
:101F80001494FEF7C7F9202107A8FEF7C3F93548D6
:101F900033490160A721C0E9011444F61F61C0E97B
:101FA000031444618461FFF74DFC08B1FEF765FA44
:101FB0004FF480500F900FA92A48FFF790FC08B10A
:101FC000FEF75BFA2748FFF766FE08B1FEF755FA01
:101FD000139413A923481494FFF7ECFB08B1FEF700
:101FE0004CFA602000904FF4FA60CDE901040394AC
:101FF00004940594002269461A480694FFF7E3FD0D
:1020000008B1FEF73AFA042269461648FFF7DBFDED
:1020100008B1FEF732FA082269461248FFF7D3FDED
:1020200008B1FEF72AFA0C2269460E48FFF7CBFDED
:1020300008B1FEF722FA0794089409944FF400506F
:102040000A94CDE90B4007A906480E94FFF788FBD8
:1020500008B1FEF712FA0348FFF760FD16B010BD95
:10206000000001403403002010B596B000240F9406
:1020700010941194129413941C2168461494FEF742
:1020800049F9202107A8FEF745F931482F49016099
:10209000A721C0E9011444F61F61C0E9031444619B
:1020A0008461FFF7CFFB08B1FEF7E7F94FF48050EA
:1020B0000F900FA92648FFF712FC08B1FEF7DDF9D3
:1020C0002348FFF7E8FD08B1FEF7D7F9139413A9E9
:1020D0001F481494FFF76EFB08B1FEF7CEF960209D
:1020E00000904FF4FA60CDE9010403940494059440
:1020F0000022694616480694FFF765FD08B1FEF711
:10210000BCF9042269461248FFF75DFD08B1FEF7ED
:10211000B4F9082269460E48FFF755FD08B1FEF7ED
:10212000ACF90794089409944FF400500A94CDE94F
:102130000B4007A906480E94FFF712FB08B1FEF703
:102140009CF90348FFF7EAFC16B010BD00040140FB
:10215000740300200E4810B50C4901600D49416020
:102160004FF48051816000214FF48062C0E9031276
:102170000C22C0E90521C161FFF7B2FD002803D0A0
:10218000BDE81040FEF779B910BD000000480040DE
:10219000B4030020A0860100FEE77047A0B1D0ED97
:1021A000101AC0ED111A90ED0F1A80ED101AC0ED43
:1021B000060A80ED070A30EEC00A80ED0F0A0178AA
:1021C00029B101293BD078E09FED3D0A7047D0ED61
:1021D000010A60EE801AC0ED091AD0ED0A0A90EDEE
:1021E000022A42EE000A30EE410AC0ED0A0A90EDE2
:1021F0000D2A80ED0E2A90ED0C2A80ED0D2A80ED3F
:102200000C0A90ED031A21EE001A80ED0B1A90EDE6
:10221000050AF4EEC00AF1EE10FA09DCB1EE400A4C
:10222000F4EEC00AF1EE10FA02D390ED0A0A01E0D2
:1022300080ED0A0A31EE800A30EE010A2BE070EEE2
:10224000410A90ED012A20EE822A80ED092AD0ED84
:10225000020A60EE800AC0ED0A0AD0ED0D2A72EE85
:10226000200AC0ED0E2AD0ED0C2AC0ED0D2AF0EEAA
:10227000002A01EE620A30EE210A80ED0C0A90ED90
:10228000031A21EE000A80ED0B0A30EE800AD0ED31
:10229000080A30EE200A80ED080AD0ED040AB4EEF8
:1022A000E00AF1EE10FA06DCF1EE600AB4EEE00AA4
:1022B000F1EE10FA01D2C0ED080A90ED080A70475D
:1022C00000000000002828D0002A26D0017092EDDE
:1022D000001A80ED011A92ED011A80ED021A92EDBA
:1022E000021A80ED031A80ED040A9FED0C0AC0ED7E
:1022F000050A80ED0E0A80ED0D0A80ED0C0A80EDD6
:10230000080A80ED0B0A80ED0A0A80ED090A80EDCB
:10231000110A80ED100A80ED0F0A704700000000DE
:1023200030B5144B1C68656945F0400565611B6854
:10233000DC6844F01004DC600F4B1C68256825F055
:10234000010525601C682568ED07F7D11D680B4C59
:10235000AC601C68E0601868016118684260186829
:10236000016841F4802101601868016841F00101B1
:10237000016030BDB4030020F40300200448004095
:10238000012000F0D6FEFBE710B5502080F3118845
:10239000BFF34F8FBFF36F8F01F0B4FB18B1044947
:1023A0004FF080500860002080F3118810BD0000BD
:1023B00004ED00E030B593B030216846FDF7AAFF88
:1023C00014210CA8FDF7A6FF19480025016841F06B
:1023D00080510160006800F080501190154801683C
:1023E00041F4804101600068022400F480401190B3
:1023F00001200090000401908001CDE906400620F4
:102400000890A820CDE9090407200B906846FEF744
:10241000F7FF0CA90F2081E831004FF4A0500F9076
:10242000E002109005210CA8FEF7DEFE13B030BDCF
:1024300040380240007000400548016841F47001D6
:10244000016003494FF00060803908607047000068
:1024500088ED00E00148FFF7AEBA00005404002008
:10246000F0B50268254C264D264E274F274B4FF0DE
:10247000804CA04209D0604507D0A84205D0B042A8
:1024800003D0B84201D0984204D122F0700E4A68BD
:1024900042EA0E02A0421BD0604519D0A84217D0D4
:1024A000B04215D0B84213D0984211D0184DA8426E
:1024B0000ED0184DA8420BD0174DA84208D0174D8A
:1024C000A84205D0164DA84202D0164DA84203D10D
:1024D00022F44075CA682A434D6922F080022A43DB
:1024E00002608A68C2620A688262A04201D0984291
:1024F00001D10969016301214161F0BD0000014082
:102500000004004000080040000C004000040140AE
:1025100000400140004401400048014000180040D4
:10252000001C00400020004010B5846842EA0322ED
:1025300024F47F440A432243826010BD826822F063
:1025400070020A4342F0070181607047F0B5026AE9
:1025500022F001020262036A42688469124E24F08A
:1025600073050C682C4323F002058B682B430D4D3B
:10257000A84201D0B04205D123F00807CB683B4305
:1025800023F00403A84201D0B04205D14D6922F4E2
:10259000407215438A692A434260846149684163F5
:1025A0000362F0BD0000014000040140F0B5026A82
:1025B00022F010020262026A436884690D6824F402
:1025C000E64444EA05248D6822F0200242EA05121E
:1025D0000F4D104EA84201D0B04206D1CF6822F074
:1025E000800242EA071222F04002A84201D0B04223
:1025F00007D14D6923F4406343EA85038D6943EABB
:10260000850343608461496881630262F0BD000014
:102610000000014000040140F0B5026A22F480721B
:102620000262026A4368C46922F4007224F07305EE
:102630000C68124E2C438D6842EA05220E4DA842CA
:1026400001D0B04206D1CF6822F4006242EA0722EC
:1026500022F48062A84201D0B04207D14D6923F430
:10266000405343EA05138D6943EA05134360C4618F
:102670004968C1630262F0BD0000014000040140EE
:1026800030B5026A22F480520262046A4268C36969
:102690000D6823F4E64343EA05238D6824F40054CF
:1026A00044EA0534084DA84202D0084DA84204D19E
:1026B0004D6922F4804242EA85124260C361496852
:1026C0000164046230BD00000000014000040140CC
:1026D00010B5036A046A24F001040462846924F0DA
:1026E000F00444EA021423F00A020A4384610262FD
:1026F00010BD10B5036A23F0100303628369046AF6
:1027000023F4704343EA023224F0A00343EA0111A8
:102710008261016210BD00002DE9F04104460068AD
:102720000169E26821F44051114301612169A06807
:10273000E26908436169114308432168CA6849F2A4
:102740000C639A430243CA6020684169A26921F47C
:10275000407111434161E069192764253226B0F5C3
:10276000004F354A354920684FF0000806D08842AE
:1027700001D0904236D1FEF701FE35E0884201D00B
:10278000904202D1FEF7FAFD01E0FEF7E7FD616835
:102790004A18A0FB070148EB0803FDF771FD01464D
:1027A000B0FBF5F00201B1FBF5F06FF018035843F0
:1027B00001EB800006EBC000B0FBF5F000F0F80084
:1027C00002EB4002B1FBF5F0584301EB800006EB51
:1027D000C000B0FBF5F000F00700216810448860ED
:1027E000BDE8F081FEF7BAFD61688B0F8A00A0FB9F
:1027F0000701FDF745FD0146B0FBF5F06FF018024B
:10280000504301EB800006EB0010B0FBF5F000F048
:10281000F002B1FBF5F002EB0012B1FBF5F06FF046
:102820001803584301EB800006EB0010B0FBF5F0F5
:1028300000F00F00D1E7000000140140001001403B
:10284000264818B400680168890604D50168406804
:10285000009018BC704722490968C906F9D501687B
:102860004068204A0090106801684FF024030C0370
:102870001D49046824F00104046016D410684468FB
:10288000C4F12404A4B20C8043601068016841F4D0
:10289000002101601068016841F001010160122C03
:1028A000D7D1124901F1160015E014686068C0F133
:1028B000240080B2088063600D498B6A23F40023F2
:1028C0008B6211680A6842F001020A601228C0D1C6
:1028D000064901F13A0018BC00F092BEB403002092
:1028E00000480040F40300202E00002030070020A4
:1028F00000600240FEE70907090E002804DB00F132
:10290000E02080F80014704700F00F0000F1E02094
:1029100080F8141D704702E008C8121F08C1002A81
:10292000FAD170477047002001E001C1121F002A50
:10293000FBD1704700B58BB000200121CDE9060125
:1029400008910090019002900390059004906946D0
:102950000C48FDF709FE0B48FEF73EF90221094835
:10296000FDF78CFD0E200990059069460648FDF79D
:10297000FBFD0548FEF730F902210348FDF77EFD17
:102980000BB000BD90000020B800002070B50028FA
:1029900036D0002934D0002A32D0002B30D0314C30
:1029A0009FED310A247864B3012C2AD0022C27D061
:1029B000032C2BD0042C42D0052C21D11C68B4F957
:1029C000024004EB8404640000EE104A6FF0090436
:1029D000B8EEC00A80ED000A1868008810FB04F009
:1029E00000EE100AB8EEC00A81ED000A186880886F
:1029F00010FB04F000EE100AB8EEC00A82ED000AE7
:102A000070BD80ED000A81ED000AF7E714461D460F
:102A10001A4600F0AFF9286895ED810A9FED131A68
:102A2000B0F9040000EE900AF8EEE00A00EEC10AE8
:102A30009FED0F1ADFED0F0A00F036FB0FE0144692
:102A40001D461A4600F096F92868DFED0B0AB0F92A
:102A5000040000EE100AB8EEC00A20EE200A84ED51
:102A6000000A70BD2D00002000000000BD370636B2
:102A7000DB0F4940DB0F49C00AD723BC10B5002843
:102A80000CD0084904220A7003689C7A0223032CA4
:102A900002D0022C03D000E00A70037210BD0122A4
:102AA000FAE700002D0000207FB504469FED4D0A97
:102AB00000200090019002900390D4ED7C0AD4EDA8
:102AC0007D1A94ED7E1AB1EE602A014672EE612AFB
:102AD0009FED452A41EE022ACDED002A70EEE12A53
:102AE00041EE022ACDED012A70EEA12A9FED3F2A88
:102AF00071EEE00A684641EE022A41EE020ACDED8F
:102B0000022ACDED030A227A032A11D100EB8102B9
:102B100001EB810392ED000A04EB8303491CBDEE37
:102B2000C00AC9B2042910EE102A9A83EED37FBDE1
:102B300000EB8102D2ED000A01EB810204EB82027C
:102B4000C2ED060AF0EEE00AB4EEE00AF1EE10FA89
:102B500001D2B0EE600A491CC9B20429E8D310EED4
:102B6000100AB0F1814F13DDB1EE001A5FF00000E2
:102B7000C1EE000A00EB800104EB8101401C91EDE5
:102B8000060AC0B2042820EE200A81ED060AF1D31D
:102B90005FF0000505EB850004EB8000D0ED060A30
:102BA00090ED050A05EBC50004EBC0005C30FFF7B3
:102BB000F5FA6D1CEDB2042DECD3002000EBC00142
:102BC00004EBC10100EB800291ED1F0A04EB8202CD
:102BD000401CBDEEC00AC0B2042810EE101A91834A
:102BE000ECD37FBD00000000EB5138BEAF4761BEA3
:102BF00000284ED000219FED271A9FED270A00BF25
:102C000001EB810200EB8202D368B3F9023000EEDF
:102C1000903A01EBC10300EBC303F8EEE00A491C54
:102C2000C9B2042960EE810AC2ED050AD3ED230A78
:102C300060EE800AC2ED040AE2D390ED0A2AD0EDDC
:102C4000051AD0ED0F0A32EE610AF1EE611A71EE4B
:102C5000C21A30EE201A90ED140A31EEA02A71EE5D
:102C6000E00A71EE402AB5EE001A32EE002A30EE8C
:102C7000C00ADFED0A0A62EE812A22EE012A20EE66
:102C8000010AC0ED792A80ED7A2A80EE201A80EDC3
:102C90007B1A70470A01DA390000FA43CDCC4C3E6A
:102CA00070B504002DED028B56D00320207200F089
:102CB000F7F99FED2B8ADFED2B8A0025206028464F
:102CC00000F0E4F905EB850104EB8101F0EE480A20
:102CD000C86005EBC50004EBC000B0EE680A224AEC
:102CE00000215C30FFF7EEFA6D1CEDB2042DE6D347
:102CF0001D4ADFED1E0AB1EE080A0C32002104F570
:102D0000BE70FFF7DFFA9FED1A8A174904F5E270EB
:102D10000839B0EE480A00F0A0F91349B0EE480AAD
:102D2000091F04F5EA7000F098F9B0EE000A84ED8E
:102D3000820AB8EE000A84ED830AB7EE080A84ED31
:102D4000840ABFEE080A84ED850A2046BDEC028B9A
:102D5000BDE87040FFF74CBFBDEC028B70BD0000BA
:102D60000000FA4400007A46F03C0008CDCC4C3E0E
:102D70006F12033B70B514002DED028B0D46064615
:102D800063D0002E61D0002D5FD02268B2F902001E
:102D900000F10A01152900D20020B2F9001001F15A
:102DA0000A03152B00D2002100EE100ADFED280ADD
:102DB000908AB8EEC00A60EE208A00EE101ADFEDAD
:102DC000250AC107B8EEC00A20EE208A02D0D4ED51
:102DD000828A03E0810701D5D4ED838A410702D5B9
:102DE00094ED848A03E0000701D594ED858AB0EE66
:102DF000680A04F5E27000F009F9B0EE480A04F53B
:102E0000EA7000F003F918EE900A13499FED130AD7
:102E1000884206DA18EE900A1149884201D284ED00
:102E2000720A18EE100A0F49884206DA18EE100AE4
:102E30000D49884201D284ED760A94ED720A86ED3E
:102E4000000A94ED760A85ED000ABDEC028B70BD98
:102E5000A69BC43B0AD7A3BB90C2753D00000000EF
:102E600090C275BDCCCC4C3DCCCC4CBD10B5040053
:102E70002DED048B84B029D09FED418A03468DED62
:102E8000008A8DED018A8DED028A02AA01A96846A9
:102E9000FFF77CFD207A9FED3B1ADFED3B0AC8B1BE
:102EA000012836D0022856D003280FD19DED000A04
:102EB00084ED7C0A9DED010A84ED7D0A9DED020AF8
:102EC00084ED7E0A84ED728A84ED768A04B0BDECCE
:102ED000048B10BD9DED000A84ED7C0A9DED010A76
:102EE00084ED7D0A9DED020A00F0DEF884ED800A93
:102EF00094ED821AD4ED830A94ED7C0A00F0B6F8C2
:102F000084ED7C0A94ED841AD4ED850A94ED7D0A53
:102F10001CE0F0EE418AB0EE609A9DED020A00F0EE
:102F2000C3F884ED810AD4ED860AB0EE681A30EE5B
:102F3000600AF0EE490A00F0B7F8F0EE400AB0EE91
:102F4000480A04F5BE70FFF729F906E000F08EF894
:102F500084ED7D0ABAE79DED020A84ED7E0A94EDC8
:102F6000821AD4ED830A9DED000A00F07FF884ED0B
:102F70007C0A94ED841AD4ED850A9DED010AE5E7FB
:102F800000000000DB0F4940DB0F49C040F2651034
:102F900000F054FC1B48FFF783FE1A4C1948FFF75A
:102FA0006DFD1848417A027A914214D011B142B1B4
:102FB000012903D0012A09D002290BD0022A05D009
:102FC00008E09FED110A80ED800A03E090ED860A8B
:102FD00080ED810A42720B48FFF70AFE0948FFF7AD
:102FE00045FF0848FFF760FDB4F95830B4F94420B4
:102FF000B4F93010B4F91C00FDF7D6F9022000F046
:103000001DFCCBE70C0500200000000010B510EE01
:10301000103A03608168C26800EE101A00EE902A30
:10302000446830EE201A00EE101AC0EE010A00EEDD
:10303000104A20EE801A00EE101A00EE902A70EE70
:10304000201A00EE102AC0EE210A00EE103A00EE1F
:10305000801A11EE101A416010BD10EE102AC260E5
:10306000096881600021016041607047B4EEE00AA8
:10307000F1EE10FA02D2B0EE600A7047B4EEC10A67
:10308000F1EE10FAF9DDB0EE410A704700F00300EE
:10309000024900EB800001EB4000704794040020DF
:1030A0000048704730070020B4EEE01AF1EE10FA45
:1030B0000FD371EE601AB4EEC10AF1EE10FA03DC20
:1030C00008E000BF30EE610AB4EEC10AF1EE10FA7A
:1030D000F8DC7047B4EEE00AF1EE10FA02D3704764
:1030E00030EE210AB4EEE00AF1EE10FAF8D37047A0
:1030F000FDF7CAFFFFF75EF9FEF7FAFEFEF7C4FE22
:10310000FEF7B2FFFEF732FFFFF724F8FEF778FE76
:10311000FEF798FEFFF70EFC00F06AFAFEF7CAFE13
:1031200000F00EF8FEE701460020842900D0C81CFC
:10313000704710B500B9012000F080FB002010BDE1
:1031400010B500F0A1FB002010BD7FB50D46044670
:103150004169B0F9080081B1A16971B1FFF7E3FFDE
:10316000D4E905128DE80700D4E900102B46226946
:1031700000F09DFC039004B070BDFFF7D4FF03A9DD
:10318000CDE90001208A2B4682B2D4E9001000F07C
:1031900061FC012801D00020EDE70398EBE7000077
:1031A0002DE9F041184C0F46054666692068001D60
:1031B00000F080FA38B9206890F82C10012088407F
:1031C000A1698143A161681C07D137B12168BDE8BD
:1031D000F0410E48091D00F0B1BA20683544B542EF
:1031E0004560216805D2A068BDE8F041091D00F0E6
:1031F0008DBA6068091D00F089FA206B854200D203
:103200002563BDE8F0810000300000206C0800203C
:103210002DE9F041054600F09DFA2E4C2069401C36
:10322000206120682C4F10B1E06940B32DE025608B
:103230002069012829D1002606EB860007EB8000D3
:1032400000F056FA761C072EF6D323488C3000F097
:103250004FFA2148A03000F04BFA1F48B43000F07C
:1032600047FA1D48C83000F043FA1B48DC3000F034
:103270003FFA19488C3060601430A06005E0206887
:10328000E96AC06A884200D82560E06A401CE062B2
:10329000E96A0120A26988401043A06101EB810026
:1032A00007EB8000291D00F049FA00F073FAE0698D
:1032B00000280CD02068E96AC06A884207D2074912
:1032C0004FF080500860BFF34F8FBFF36F8FBDE8A2
:1032D000F0810000300000209007002004ED00E0A5
:1032E00010B5044690F8510058B101280CD00228BE
:1032F0000FD0502080F31188BFF34F8FBFF36F8F33
:10330000FEE7206B00F05AFA2046BDE8104000F0BE
:1033100055BA10BD10484FF47051420706D0C01D79
:103320000D4920F00700411AC1F570510B4A0023E6
:103330000144C2E900030839103A21F00701116085
:103340004B600B600B1AC0E9001393604FF0004014
:103350005360D06070470000800800207C0000208F
:10336000144E154CA6F1C8074FF08058DFF84C906A
:1033700012E000BF00F0EEF9F068C568281D00F00B
:1033800099F92069401E2061E068401EE06000F06D
:1033900001FA2846FFF7A4FFE0680028EAD1386860
:1033A0000128F9D9C9F80080BFF34F8FBFF36F8FA1
:1033B000F2E70000580800203000002004ED00E093
:1033C0002DE9F0479A46DDE9098481466FF0030351
:1033D000206B03EB82021044089E20F00707780759
:1033E00007D0502080F31188BFF34F8FBFF36F8F4A
:1033F000FEE7002561B1002023180A5C83F8342021
:103400000A5C12B1401C1028F6D384F8435001E046
:1034100084F83450072E00D30626E662C4E911650D
:10342000201D00F070F904F1180000F06CF924611F
:10343000C6F107006462A061E56484F8505052460A
:103440004946384600F0BEF82060B8F1000F01D0C0
:10345000C8F80040BDE8F08730B5114900E01146DA
:103460000A688242FBD34B685C18844203D14068EF
:1034700018444860084643681C18944209D1084C17
:10348000103C2468A24209D052681A4442600A687B
:1034900012680260814200D0086030BD0460F9E724
:1034A0007C00002006484168096829B14168C96864
:1034B000C9684968016370474FF0FF31FAE70000BF
:1034C0003000002008484068401C4FF0500080F356
:1034D000118804D0BFF34F8FBFF36F8FFEE7BFF3A8
:1034E0004F8FBFF36F8FFEE7840000202DE9F0417E
:1034F0000546002700F0FEF9314E306808B9FFF7A5
:1035000009FFF06805424BD1C5B3083568070ED0F6
:1035100005F00700C0F108000544680707D05020F7
:1035200080F31188BFF34F8FBFF36F8FFEE72DB38A
:103530007068854234D82248103001460C6801E09A
:1035400020460C466168A94202D221680029F7D1C1
:1035500031688C4224D007682168016060680837B0
:10356000411B10290FD96019420708D0502080F361
:103570001188BFF34F8FBFF36F8FFEE710E04160FC
:103580006560FFF769FF61687068401A7060B26833
:10359000904200D2B060F06801430020C4E900010D
:1035A00000F014FB780707D0502080F31188BFF398
:1035B0004F8FBFF36F8FFEE73846BDE8F081000004
:1035C0006C00002010B5031F4FF080741C601B1F9F
:1035D00021F001011960191F044B0B6014390A60B6
:1035E000091F6FF0020244380A6010BDC53400089C
:1035F00002492422A1F12400FEF792BE6A070020AE
:10360000F0B5002855D0002953D00278437842EA1B
:103610000322C2F30A020A8043788478DB0843EA73
:103620004413C3F30A034B808478C578A40944EAA1
:103630008504057944EA8524C4F30A048C8005795D
:1036400046796D0845EAC615C5F30A05CD80467969
:10365000C6F301168E724679B609CE728679C7799D
:1036600046EA07268E81067A477A46EA0726CE8101
:10367000867AC77A46EA07260E82067B8E74467BD8
:10368000CE74867BC77B46EA07268E82067C407C0A
:10369000A2F580620A80A3F580634B80A4F5806464
:1036A00046EA00208C80A5F58065CD80A0F580607D
:1036B0000881F0BDD0E9013201699A60D0E90123A7
:1036C0005A604A68824201D182684A6000220261DF
:1036D0000868401E0860086870470000034B0360DC
:1036E00003F154000860802010607047E000002063
:1036F00000F108014FF0FF32C0E90112C160016121
:1037000000210160704700210161704730B50B68EE
:103710005A1C02D000F1080202E0026904E02246CD
:10372000546825689D42FAD953684B6099608A6055
:10373000516008610168491C016030BD42684A60FF
:1037400093688B6093685960916008610168491CB7
:1037500001607047502080F31188BFF34F8FBFF393
:103760006F8F0A494868401C486001280CD10848FE
:10377000006810F0FF0F07D0502080F31188BFF3CE
:103780004F8FBFF36F8FFEE770470000840000206B
:1037900004ED00E00849486828B1401E486001D1A6
:1037A00080F311887047502080F31188BFF34F8F4A
:1037B000BFF36F8FFEE700008400002070B5002883
:1037C00027D0144DA0F108046168E868014207D1D0
:1037D000502080F31188BFF34F8FBFF36F8FFEE748
:1037E00022683AB1502080F31188BFF34F8FBFF3A6
:1037F0006F8FFEE78143616000F07CF86068696864
:10380000084468602046FFF727FEBDE8704000F0DE
:10381000DDB970BD6C0000204FF0E0200021016197
:10382000816105494FF47A720968B1FBF2F1491ED2
:1038300041610721016170471800002010B50200A6
:1038400014D00F48806B38B1502080F31188BFF33B
:103850004F8FBFF36F8FFEE700F04CF8002110464A
:10386000FFF79EFC00F0B2F9002807D105494FF0A0
:1038700080500860BFF34F8FBFF36F8F10BD000003
:103880003000002004ED00E010B586B00024039461
:1038900005AA04A903A80494FFF720FFDDE90301AA
:1038A0000094CDE9011000230EA11048059A00F004
:1038B000FEF80F490028486311D0502080F311888A
:1038C000BFF34F8FBFF36F8F4FF0FF3008630120BE
:1038D000C8614C6106B0BDE8104000F041B806B0C8
:1038E00010BD000049444C45000000006133000851
:1038F000300000200248816B491C81637047000042
:10390000300000201448816B11B1012141627047E1
:10391000002141628169B1FA81F1C1F11F0101EB1E
:1039200081020E4951F822306BB101EB820101F1A5
:1039300008034A6852684A609A4201D152684A6054
:10394000D16801607047502080F31188BFF34F8F1A
:10395000BFF36F8FFEE700003000002090070020CB
:103960001CB537480168374A914207D1502080F38F
:103970001188BFF34F8FBFF36F8FFEE700683149A7
:10398000491E884207D1502080F31188BFF34F8F22
:10399000BFF36F8FFEE72C4908780190FF20087075
:1039A00008788DF800009DF800009DF8002000F0D8
:1039B000F000904207D0502080F31188BFF34F8F62
:1039C000BFF36F8FFEE79DF80000204B00F0500022
:1039D00018700720986005E09DF8002052008DF8CF
:1039E0000020401E9DF800201206F5D498600328A0
:1039F00007D0502080F31188BFF34F8FBFF36F8F34
:103A0000FEE74FF440709860019808700C48203031
:103A1000016841F470010160016841F0704101608A
:103A2000FFF7FAFE00205860FCF7DCFB084801684D
:103A300041F040410160FCF7C1FB00201CBD0000CB
:103A400000ED00E071C20F4100E400E084000020BE
:103A500034EF00E02DE9FF5F8346DDE90E879946EC
:103A600016468A469000FFF741FD05001CD0542001
:103A7000FFF73CFD040014D00020256384F85100BA
:103A8000CDE90240CDE900874B46324651465846C3
:103A9000FFF796FC2046FFF7BBFB012004B0BDE812
:103AA000F09F2846FFF78AFE4FF0FF30F6E7F0B5AB
:103AB00085B0DDE90B640A9DA6B1DCB154270097FF
:103AC0002663022684F85160002604AFCDE9024641
:103AD000CDE90057FFF774FC2046FFF799FB0498E7
:103AE00005B0F0BD502080F31188BFF34F8FBFF3B6
:103AF0006F8FFEE7502080F31188BFF34F8FBFF325
:103B00006F8FFEE72DE9F0412E4C0027A06B40B1EE
:103B1000206A401C2062606A00B101273846BDE877
:103B2000F0816669761C666113D16068006838B1FF
:103B3000502080F31188BFF34F8FBFF36F8FFEE7E4
:103B40006068A1686160A060A06A401CA062FFF785
:103B5000A9FC206BDFF87080864209D3606800689A
:103B600080B16068C068C568686886420DD220630D
:103B70002068C06A00EB800158F821000128CAD9EA
:103B80000127C8E74FF0FF30F1E7281DFFF792FD4E
:103B9000A86A18B105F11800FFF78CFDE86A012149
:103BA000A26981401143A16100EB800108EB810013
:103BB000291DFFF7C3FDE86A2168C96A8842CDD391
:103BC0000127CBE730000020900700202DE9F047C7
:103BD0002C4D00242746A86B38B1FFF7BBFDA86B1E
:103BE000401EA863A86B40B146E0502080F31188C6
:103BF000BFF34F8FBFF36F8FFEE72969224E01207D
:103C0000D1B3A6F1B40980463068E8B1F068C46861
:103C100004F11800FFF74EFD201DFFF74BFDE06A91
:103C2000AA6908FA00F11143A96100EB800109EBD0
:103C30008100211DFFF782FDE06A2968C96A884278
:103C4000E2D3C5F82480DFE70CB1FFF72BFC2C6A28
:103C500044B14646FFF756FF00B16E62641EF9D1CB
:103C600000202862686A38B10849012738070860CF
:103C7000BFF34F8FBFF36F8FFFF78CFD3846BDE862
:103C8000F0870000300000204408002004ED00E030
:103C9000143D00088123000800000000000000001F
:103CA000800000000000000000000000083D000847
:103CB0008D2F00080100000000000000000200003D
:103CC000000000000000000000061016000610169C
:103CD00000000000000000000102030406070809BC
:103CE0000000000001020304ABAA2A3EABAAAA3ED0
:103CF00000606A46000020410000000000002042F1
:103D00000000000000000000436861737369735491
:103D100061736B0064656661756C745461736B00EC
:103D2000403D000800000020900000001629000817
:103D3000D03D000890000020F06300002629000814
:103D40000000000000000000000000000100000072
:103D500010000000000000000024F400000000003B
:103D60000000000000000000000000000000000053
:103D70000000000000000000000000000000000043
:103D80000000000000000000000000000000000033
:103D90000000000000000000000000000000000023
:103DA0000000000000000000000000000000000013
:103DB0000000000000000000000000000000000003
:103DC0000000000000000000AAAAAAAA000000004B
:040000050800018965
:00000001FF
